:020000040000FA
:060000009EEF19F0120052
:0600080004EF08F01200F5
:060018000CEF08F01200DD
:061000009EEF19F0120042
:021006001200D6
:0610080049EF11F0120097
:0610180094EF11F012003C
:02101E000100CF
:0C10200058330000CE0500000B0000005B
:04102C00D9CFE6FF33
:10103000E1CFD9FFE652A394676A656A6A6A010E36
:10104000E66EE66AE66A6B0EE66E0F0EE66E5DEC25
:1010500019F00B6E050EE15E0B50160E626E9F0EC0
:10106000666E7B0E646EDF6ADF500B6E0C6A080ED4
:101070000B5C000E0C5810E2DF50040DF3CFE9FFBB
:10108000F4CFEAFF000EE926040EEA22EE6AEE6AC9
:10109000EE6AEE6ADF2AE8D7608C636A6098609C2B
:1010A00065A607D065960501B36BB86BB96BBA6BD3
:1010B000F7D70501010ECA6FCB6FCC6BCD6BC06B40
:1010C000DF6A020EDF5C26E2EA6ADF34FE0BEA36F4
:1010D000E96EAB0EE926050EEA22EE6AED6AEA6ACF
:1010E000DF34FE0BEA36E96EA70EE926050EEA228A
:1010F000EE6AED6ADF50EA6AC40FE96E050EEA2275
:10110000EF6ADF50EA6AC60FE96E050EEA22EF6A5F
:10111000DF2AD7D70501080EAB6F040EAC6F160E91
:101120006A6E0401200E026F040E036F080E016F39
:10113000840E006F0501A16BA06BE552E552E7CF6D
:10114000D9FF1200D9CFE6FFE1CFD9FFE652050162
:10115000A00507E160BA05D0656A64806488020E64
:10116000A06F6550040B06E06450040B03E0659427
:1011700088EC0EF060B259D06550010B09E0645064
:10118000010B06E053DFA3840501040EA06F6590F8
:101190006550100B06E06450100B03E073EC0EF08A
:1011A000659865AC19D064AC0FD0010EE66EE66AA6
:1011B000000EE66EE66A730EE66EE66AA8EC17F0BD
:1011C0000B6E060EE15E0B50659C0501C85101E0F7
:1011D000C807C85101E1FBD96550200B05E06450F8
:1011E000200B02E05AEC0EF06550020B13E0645045
:1011F000020B10E0010EE66EE66A000EE66EE66A8D
:10120000E6687F0EE66EA8EC17F00B6E060EE15E48
:101210000B50676A040E0501E76EA019E8AE02D014
:10122000E73402D0E750A05D02E2A49439D064A66E
:1012300036D0DF6A040EDF5C32E265A630D061CFC3
:10124000C1F50501C151780BE842E842E842C26F9E
:101250006596C1B506D0C251EA6AC60FE96E050EA1
:1012600005D0C251EA6AC40FE96E050EEA22EF709A
:10127000C25103E19FEC0EF010D0000EE66EE66A5C
:10128000C10EE66E050EE66E720EE66EE66AA8EC1C
:1012900017F00B6E060EE15E0B50DF2ACBD7A4943D
:1012A000E552E552E7CFD9FF1200D9CFE6FFE1CFF3
:1012B000D9FF020EE126FD0EDBA407D0E66AFE0E82
:1012C000DBCFE6FF13DAE552E552FD0EDBA208D0D4
:1012D000010EE66EFE0EDBCFE6FF08DAE552E552C0
:1012E000FE0EDB500C6A6A0F0B6E0F0E0C220BC049
:1012F000DEFF0CC0DDFFDECFE9FFDDCFEAFFFD0E34
:10130000DBCFEFFF020EE15C02E2E16AE552E16E43
:10131000E552E7CFD9FF1200D9CFE6FFE1CFD9FFE1
:10132000020EE126FD0EDB500AE0FE0EEA6ADB3417
:10133000FE0BEA36E96EAB0EE926050E09D0FE0E6D
:10134000EA6ADB34FE0BEA36E96EA70EE926050EE3
:10135000EA22EECFDEFFEDCFDDFFD9CFE9FFDACF16
:10136000EAFFEE50ED1003E1F36AF46A44D0DECFF9
:10137000E9FFDDCFEAFF020EE926000EEA22FB0EAE
:10138000DBCFEEFFFC0EDBCFEDFFDECFE9FFDDCFE5
:10139000EAFFEE52FA0EDBCFEFFF400EDECFE9FFA1
:1013A000DDCFEAFFE850EF16880EDECFE9FFDDCF94
:1013B000EAFFE850EF12FD0EDB500AE0FE0EEA6A8B
:1013C000DB34FE0BEA36E96EAB0EE926050E09D0DA
:1013D000FE0EEA6ADB34FE0BEA36E96EA70EE9265A
:1013E000050EEA22EF74DECF0BF0DDCF0CF00BC060
:1013F000F3FF0CC0F4FF020EE15C02E2E16AE55289
:10140000E16EE552E7CFD9FF1200D9CFE6FFE1CF79
:10141000D9FF020EE126FE0EDB5020E1A5C5E9FF53
:10142000A6C5EAFFEE52080EEF6EA5C5E9FFA6C5F8
:10143000EAFF020EE926000EEA22200EEE6E040EEE
:10144000ED6EA5C5E9FFA6C5EAFF8C0EEF6EABC534
:10145000E9FFACC5EAFF840EEF6E3BD0FD0EDB501A
:10146000E8240D6EFE0EDB50040DF3500D24040D28
:10147000F3CF0BF0F4CF0CF0000E0B26040E0C2271
:101480000BC0DEFF0CC0DDFF840EDECFE9FFDDCF39
:10149000EAFFE850EF12FD0EDB50E8240D6EFE0E61
:1014A000DB50040DF3500D24010F040DF3CF0BF0AE
:1014B000F4CF0CF0000E0B26040E0C220BC0DEFF46
:1014C0000CC0DDFF840EDECFE9FFDDCFEAFFE85080
:1014D000EF12020EE15C02E2E16AE552E16EE552D2
:1014E000E7CFD9FF1200D9CFE6FFE1CFD9FF60A83F
:1014F0004ED0FE0EEA6ADB34FE0BEA36E96EAB0E26
:10150000E926050EEA22EE50EFCFEAFFE96E400E23
:10151000EE16EE6AEE6AEE6AFE0EEA6ADB34FE0B47
:10152000EA36E96EAB0EE926050EEA22EE50EFCF61
:10153000EAFFE96EEE7CFE0EEA6ADB34FE0BEA3669
:10154000E96EAB0EE926050EEA22EF74400E0B6E33
:10155000FE0EEA6ADB34FE0BEA36E96EAB0EE926D4
:10156000050EEA22EE50EFCFEAFFE96E0B50EF16C0
:10157000FE0EEA6ADB34FE0BEA36E96EAB0EE926B4
:10158000050EEA22EE50EFCFEAFFE96EEF7CE5525E
:10159000E7CFD9FF1200606A646A0501A06B1200F0
:1015A0000501A05113E1606A646A160E626E9F0E17
:1015B000666E7B0E646ED08EA584A384F28E60B6B8
:1015C00002D06086FCD70501010EA06F1200050154
:1015D000CA514DE1010ECA6FCB5149E1010ECB6FEB
:1015E000020EB05D0DE1ABC5E9FFACC5EAFFEE52FE
:1015F000EF6AABC5E9FFACC5EAFFC80EEF6E12009B
:10160000B00535E1C36BA3C5E9FFA4C5EAFFEE52FF
:10161000080EEF6EA3C5E9FFA4C5EAFF020EE92696
:10162000000EEA22200EEE6E040EED6EA3C5E9FF59
:10163000A4C5EAFF840EEF6E010EC36FA5C5E9FFD6
:10164000A6C5EAFFEE52080EEF6EA5C5E9FFA6C5D6
:10165000EAFF020EE926000EEA22200EEE6E040ECC
:10166000ED6EA5C5E9FFA6C5EAFF800EEF6E12007C
:101670000501CC6BCD6B020EB05D18E1A5C5E9FF8D
:10168000A6C5EAFFEE52080EEF6EA5C5E9FFA6C596
:10169000EAFF020EE926000EEA22280EEE6E040E84
:1016A000ED6EA5C5E9FFA6C5EAFF1DD0B451040142
:1016B000265D0501B5510401275904E226C4B4F59D
:1016C00027C4B5F5CAD8ABC5E9FFACC5EAFF020E21
:1016D000E926000EEA22280EEE6E040EED6EABC572
:1016E000E9FFACC5EAFFC80EEF6E1200D9CFE6FFE6
:1016F000E1CFD9FF020EE126000EDE6E040EDD6E94
:10170000FD0EDB50E8240D6EFE0EDB50040DF35091
:101710000D24040DF4CF0CF0D9CFE9FFDACFEAFFA6
:10172000F350EE260C50ED22DECFE9FFDDCFEAFFCD
:10173000EF9EFD0EDB500AE1FE0EEA6ADB34FE0B83
:10174000EA36E96EA70EE926050E09D0FE0EEA6A12
:10175000DB34FE0BEA36E96EAB0EE926050EEA2213
:10176000DECFEEFFDDCFEDFFDECFE9FFDDCFEAFF1D
:10177000EF9CDECFE9FFDDCFEAFF040EE926000E85
:10178000EA22EF8C020EE15C02E2E16AE552E16ED0
:10179000E552E7CFD9FF120060980501B3BF2BD007
:1017A000B8AF09D0020EB06FCD5101E161DF050184
:1017B000CB6BCA6B1200A5C5E9FFA6C5EAFFEE52C6
:1017C000080EEF6EA5C5E9FFA6C5EAFF020EE926E1
:1017D000000EEA22200EEE6E040EED6EA5C5E9FFA6
:1017E000A6C5EAFF8C0EEF6EABC5E9FFACC5EAFFFC
:1017F000840EEF6E1200040120AF0DD00501010E22
:10180000B06FCC5101E134DF0501CB6BCA6BC9511C
:1018100023E1E7EF0AF00501020EB06FA5C5E9FF6D
:10182000A6C5EAFFEE52080EEF6EA5C5E9FFA6C5F4
:10183000EAFF020EE926000EEA22200EEE6E040EEA
:10184000ED6EA5C5E9FFA6C5EAFF840EEF6ECB6B72
:10185000CA6BC95101E1BBDE1200D9CFE6FFE1CF6F
:10186000D9FFE652080EDF6E0501B45D000EB559D2
:101870000AE2B4C5DFFFAF5102E1010E03D0AF05AC
:1018800002E1020EAF6FDF500C6AE850B45DB46F36
:101890000C50B559B56FABC5E9FFACC5EAFFEE52C8
:1018A000DFCFEFFF280EBD6F040EBE6FB3B118D0AF
:1018B000DF502DE0B1C5F6FFB2C5F7FFB12B000E2A
:1018C000B2230800F550E66EBDC5E9FFBEC5EAFFCC
:1018D000BD2B000EBE23E552E750EF6EDF06E8D7C2
:1018E000DF5015E0B1C5E9FFB2C5EAFFB12B000E2C
:1018F000B223EF50E66EBDC5E9FFBEC5EAFFBD2BC2
:10190000000EBE23E552E750EF6EDF06E9D7E55241
:10191000E552E7CFD9FF1200D9CFE6FFE1CFD9FFDB
:10192000020EE126A3C5E9FFA4C5EAFFEE52EFCF00
:10193000DFFFDFCF0BF00B500501B95D000EBA5988
:1019400002E2B9C5DFFFDF500B6E0C6AE850B95DEB
:10195000B96F0C50BA59BA6F010EDB6ADF50F36EE3
:10196000010EDBCFF4FFF350F45C16E2010EDB5006
:10197000EA6A280FE96E040EEA22EF50E66EB6C559
:10198000E9FFB7C5EAFFB62B000EB723E552E750D3
:10199000EF6E010EDB2AE2D7000ED880B955000E9B
:1019A000BA5527E2A5C5E9FFA6C5EAFFEE52080E23
:1019B000EF6EA5C5E9FFA6C5EAFF020EE926000EF7
:1019C000EA22280EEE6E040EED6EA3C5E9FFA4C553
:1019D000EAFFEF50400B06E1A5C5E9FFA6C5EAFF07
:1019E000C80E05D0A5C5E9FFA6C5EAFF880EEF6EB3
:1019F00028D0A5C5E9FFA6C5EAFFEE52080EEF6E96
:101A0000A5C5E9FFA6C5EAFF020EE926000EEA22F7
:101A1000200EEE6E040EED6EA5C5E9FFA6C5EAFF29
:101A2000840EEF6EBB51BC1107E005D0BCC5FAFFB8
:101A30000501BB51F96EFADF0501B89FC95101E1FB
:101A4000C6DD020EE15C02E2E16AE552E16EE552BA
:101A5000E7CFD9FF1200D9CFE6FFE1CFD9FFE65299
:101A60000501B38F010EE66EE66AE66A6B0EE66E5E
:101A70000F0EE66E5DEC19F00B6E050EE15E0B507D
:101A8000200EE66EE66AE66A000EE66E040EE66E6C
:101A90005DEC19F00B6E050EE15E0B50608CDF6A99
:101AA000020EDF5C10E2DF50EA6AC40FE96E050E39
:101AB000EA22EF6ADF50EA6AC60FE96E050EEA22F3
:101AC000EF6ADF2AEDD7010EE66EE66AE66AA20E3D
:101AD000E66E050EE66E5DEC19F00B6E050EE15E2E
:101AE0000B50609C0501080EAB6F040EAC6F000E2E
:101AF000A36F040EA46FA3C5A5F5A66F22C4A1F51C
:101B0000A15102E1100E12D0010EE66EE66AA10E9E
:101B1000E66E050EE66E010EE66EE66AA8EC17F0BC
:101B20000B6E060EE15E0B500501200EA06FE55214
:101B3000E552E7CFD9FF1200800E0401205D58E185
:101B40000501C00EB36F04012351030A2FE0010AFF
:101B500009E0030A4BE10501E40EB16F2F0EB26FED
:101B6000120E3ED02251F66EF76AD890F636F7364E
:101B7000A10EF626300EF7220900F5CFB1F50A00C6
:101B8000F5CFB2F5020E0501F76AB125F66EB25136
:101B9000F7220800F5CFB4F5030EF76AB125F66E0B
:101BA000B251F7220800F5CFB5F51200030E225D01
:101BB0001AE22251F66EF76AD890F636F736A30E7F
:101BC000F626300EF7220900F5CFB1F50A00F5CF61
:101BD000B2F5B1C5F6FFB2C5F7FF0800F550050133
:101BE000B46FB56B12000501B36B12000501B36B46
:101BF0001200D9CFE6FFE1CFD9FF020EE1260401A2
:101C0000286B296B20511F0B020A11E0030A0CE01C
:101C1000010A3CE10501B38F040128810501BF05DC
:101C200035E10401288332D00501B38F2FD005019F
:101C3000B38F040124BF0BD024510F0BE96EEA6A65
:101C4000D890E936EA36A70EE926050E0AD02451C7
:101C50000F0BE96EEA6AD890E936EA36AB0EE92650
:101C6000050EEA22EECFDEFFEDCFDDFFDECFE9FF8E
:101C7000DDCFEAFFEF50800B09E0DECFE9FFDDCFDB
:101C8000EAFFEF50040B02E0010E286F0501B3AF2D
:101C900007D0280EB16F040EB26FB381020EB46F7D
:101CA000020EE15C02E2E16AE552E16EE552E7CF45
:101CB000D9FF12006AA015D0A3C5E9FFA4C5EAFFA9
:101CC000EF5080080DE1ABC5E9FFACC5EAFFEF506E
:101CD000840806E1A3C5E9FFA4C5EAFF8C0EEF6EF8
:101CE0006A90659A12006484659860820501010E0D
:101CF000C06F000EE66EE66AE66EE66A750EE66E88
:101D0000E66AA8EC17F00B6E060EE15E0B501200AF
:101D10000501C06B000EE66EE66AE66EE66A740EBA
:101D2000E66EE66AA8EC17F00B6E060EE15E0B504D
:101D30006092649465A402D06594FCD71200D9CF58
:101D4000E6FFE1CFD9FFE65205012D0EC86FFD0E6B
:101D5000C11553E17E0EC115E8407F0B040DF3CF92
:101D6000A3F5F4CFA4F5000EA327040EA423A3C566
:101D7000A5F5A4C5A6F5A575A3C5E9FFA4C5EAFF09
:101D8000EF503C0BE842E8420D0835E1DF6A080EEF
:101D9000DF5C23E2A3C5E9FFA4C5EAFF020EE92642
:101DA000000EEA22EE50EFCFEAFFE96EEF50E66E4A
:101DB000DF50EA6A200FE96E040EEA22E552E7508E
:101DC000EF6EA3C5E9FFA4C5EAFF020EE926000EE7
:101DD000EA22EE2AEF22DF2ADAD7A3C5E9FFA4C55B
:101DE000EAFF020EE926000EEA22200EEE6E040E35
:101DF000ED6E0DD807D03AD805D0FD0EC1150408F8
:101E000001E159D8E552E552E7CFD9FF12000501AB
:101E1000AF6BC96BCC6BCD6BC36BB06BABC5E9FF64
:101E2000ACC5EAFFEF9EAB75ABC5E9FFACC5EAFFF9
:101E3000EF9EAB75A5C5E9FFA6C5EAFFEF9EB36BA4
:101E4000B46BB56BB86BB96BBA6B8CD8000EE66E21
:101E5000E66AE66EE66A030EE66EE66AA8EC17F03E
:101E60000B6E060EE15E0B50CCEF0BF0020E05017F
:101E7000B05D02E18CEF0CF0B06BC3511AE1A5C567
:101E8000E9FFA6C5EAFFEE52080EEF6EA5C5E9FF11
:101E9000A6C5EAFF020EE926000EEA22200EEE6E2B
:101EA000040EED6EA5C5E9FFA6C5EAFF8C0EEF6E28
:101EB0001200C36B1200D9CFE6FFE1CFD9FFE65283
:101EC000ABC5E9FFACC5EAFFEF50400B01E0010EE6
:101ED000DF6E0501AB75080EA05D08E122C463FF4B
:101EE000635002E0100E01D0040EA06FB00526E191
:101EF000ABC5E9FFACC5EAFF020EE926000EEA22F7
:101F0000280EEE6E040EED6EA8DC020E0501AF5D2C
:101F100006E1ABC5E9FFACC5EAFF840E0DD0DF508A
:101F200006E1ABC5E9FFACC5EAFFC80E05D0ABC5FD
:101F3000E9FFACC5EAFF880EEF6E0FD0B8AF0CD04A
:101F4000BB51BC1107E005D0BCC5FAFF0501BB5170
:101F5000F96EFADF0501B89FB06BE552E552E7CFA5
:101F6000D9FF120004012051600BE842E842E84228
:101F7000E842E842000901E0120021510C0A50E059
:101F80000B0A3FE00C0A31E0010A22E00B0A1EE0D6
:101F9000020A1CE0030A18E0080A10E0010A0CE03B
:101FA0000F0A08E0030A01E012000501B38F080ED2
:101FB000A06F12009CEF0DF02BEF0DF00501A10EAC
:101FC000B16F050EB26F0CD0F9EF0DF011EF10F0FC
:101FD00024510501B16FB26BA20EB127050EB223D9
:101FE000B381010EB46FB38F12000501B38F0401EA
:101FF0002451EA6AA20FE96E050EEA2222C4EFFF1D
:102000001200000EE66EE66AE66EE66A020EE66E04
:10201000E66AA8EC17F00B6E060EE15E0B5012009C
:102020001200D9CFE6FFE1CFD9FF050EE12604016A
:10203000220510E120511F0B00090CE10501B38FAF
:10204000030E0401215D04E10501010EBF6F02D002
:102050000501BF6B0401225101E011D120511F0B7A
:10206000020801E00CD124510F0B000901E107D156
:1020700024510F0B010801E202D1200E0501A05DE1
:1020800001E0FDD0B38F040124BF16D024510F0B03
:10209000E96EEA6AD890E936EA36A70EE926050E17
:1020A000EA22EECFDEFFEDCFDDFF24510F0BEA6A0F
:1020B000C60FE96E050E15D024510F0BE96EEA6AC2
:1020C000D890E936EA36AB0EE926050EEA22EECFC5
:1020D000DEFFEDCFDDFF24510F0BEA6AC40FE96E7E
:1020E000050EEA22020EEFCFDBFFD950020FE96E98
:1020F000DACFEAFFEF50010B03E1000EDF9401D0CD
:10210000DF8424BF0BD024510F0BE96EEA6AD8900C
:10211000E936EA36A70EE926050E0AD024510F0B40
:10212000E96EEA6AD890E936EA36AB0EE926050E82
:10213000EA22DECFEEFFDDCFEDFF030E215D20E1D1
:10214000DECFE9FFDDCFEAFFEF50800B11E024BFC7
:1021500007D024510F0BEA6AC60FE96E050E06D0B0
:1021600024510F0BEA6AC40FE96E050EEA22EF82D2
:10217000840EDECFE9FFDDCFEAFFE850EF127FD01B
:10218000DF74DECFE9FFDDCFEAFFEF50800B1BE00D
:10219000DECFE9FFDDCFEAFFEF9EDECFE9FFDDCF47
:1021A000EAFFEF8C020EE66EE66ADECFE6FFDDCFD9
:1021B000E6FF050EE66EE66AA8EC17F00B6E060E5B
:1021C000E15E0B5005D0DECFE9FFDDCFEAFFEF8CFB
:1021D000DF74D950020FE96EDACFEAFFEF50020B3D
:1021E00007E1DECFE9FFDDCFEAFFEF50800B2BE008
:1021F000040124BF07D024510F0BEA6AC60FE96E11
:10220000050E06D024510F0BEA6AC40FE96E050EC5
:10221000EA22EF923B0E0B6EDECFE9FFDDCFEAFF45
:10222000E850EF16020EE66EE66ADECFE6FFDDCF7F
:10223000E6FF050EE66EE66AA8EC17F00B6E060EDA
:10224000E15E0B5007D03B0EDECFE9FFDDCFEAFFAA
:10225000E850EF16040124510F0B0C6A6A0F0B6E45
:102260000F0E0C22030E0BC0DBFF040E0CC0DBFFB5
:10227000030EDBCFE9FF040EDBCFEAFFEF90050E84
:10228000E15C02E2E16AE552E16EE552E7CFD9FF97
:0222900012003A
:0E229200DACFE4FFE2CFDAFFE9CFE4FFEACFD4
:1022A000E4FFF6CFE4FFF7CFE4FFF5CFE4FFF3CF91
:1022B000E4FFF4CFE4FFFACFE4FF00EE00F00B0EF2
:1022C000E80403E3EECFE4FFFBD700EE0BF0030ED0
:1022D000E80403E3EECFE4FFFBD7E652A2EC08F0FC
:1022E000E55200EE0DF0030EE80403E3E5CFEDFF49
:1022F000FBD700EE0AF00B0EE80403E3E5CFEDFF99
:10230000FBD7E5CFFAFFE5CFF4FFE5CFF3FFE5CF4D
:10231000F5FFE5CFF7FFE5CFF6FFE5CFEAFFE5CF25
:10232000E9FFE5CFDAFF1100D8CFE4FFE0CFE4FF0B
:10233000E46EDACFE4FFE652E552E5CFDAFFE5508E
:10234000E5CFE0FFE5CFD8FF10000F015D95948445
:10235000C70EBB6E0C0EBD6E640EBE6E060EBA12BC
:10236000949412009586949483B603D0040E8B6ED9
:1023700012008B941200D9CFE6FFE1CFD9FF020EF5
:10238000E126FE0EDB500C6A000F0B6E0F0E0C22C6
:102390000BC0DEFF0CC0DDFFFD0EDB5007E0DECF23
:1023A000E9FFDDCFEAFFFC0EDBCFEFFFDECFE9FF79
:1023B000DDCFEAFFEF500B6E020EE15C02E2E16A54
:1023C000E552E16E0B50E552E7CFD9FF1200D9CFAD
:1023D000E6FFE1CFD9FF020EE126FE0EDB500C6ACC
:1023E000000F0B6E0F0E0C220BC0DEFF0CC0DDFFCA
:1023F000FC0EDB5028E0FB0EDB5013E0FB0EDB5045
:10240000F36EFD0EDB5004E0D890F336E806FCE1F5
:10241000F3500B6EDECFE9FFDDCFEAFFF350EF1292
:1024200012D0010EF36EFD0EDB5004E0D890F336AF
:10243000E806FCE1F350F31C0B6EDECFE9FFDDCFC5
:10244000EAFFE850EF16010EF36EFD0EDB5004E0DC
:10245000D890F336E806FCE1F3500B6EDECFE9FFCF
:10246000DDCFEAFFEF50F31402E0010E01D0000EC1
:102470000B6E020EE15C02E2E16AE552E16E0B5086
:10248000E552E7CFD9FF120004D8D0EC0AF043D8C8
:10249000FED70F0EC112800E9B6E700ED36E100E03
:1024A000D26ED2AEFED7B50EE96E0F0EEA6E900E6A
:1024B000EF6E0F01030E5B6F5C6B5D6B5E6B5F6BB2
:1024C00002D816EF08F08B9494949586938A958899
:1024D000958A959C959E4D0EE66EE66A1C0EE66EFC
:1024E00005EC19F0E552E552E55292800F015B814F
:1024F000C16ABE0EC06E010EC26E92805B81C16A5F
:10250000BE0EC06E010EC26E0501D26BD36BD46BD2
:10251000D56BD66B1200D9CFE6FFE1CFD9FF150EF0
:10252000E1260501D65102E022EC17F0200E05014C
:10253000E76EA019E8AE02D0E73402D0E750A05D04
:1025400001E259D36050020B01E055D30501D2518D
:10255000D31102E1000E08D0D2C5E9FFD3C5EAFFCE
:10256000EF50800B01E0010E000901E044D30501AA
:1025700000519B0A01E1E6D2010A01E1B8D2030A47
:1025800001E18BD2010A01E163D2A00A01E13CD250
:102590000F0A01E119D2BE0A01E110D2010A01E1DC
:1025A000EED10F0A01E1D2D1010A01E1A5D1030A5E
:1025B00001E174D1010A01E142D1070A01E110D120
:1025C000010A01E1D2D0030A01E1B4D0010A01E11C
:1025D0009BD0D20A01E193D0030A01E176D0010A2F
:1025E0006AE0180A51E00F0A38E0010A32E0030AF3
:1025F0002CE0010A13E0070A0FE0010A09E0030AD0
:1026000005E0010A01E0E4D244DBE2D24FDBE0D294
:1026100001C5E6FF52DB76D063DBDAD265DB05016C
:10262000516F440E506F0501D451D51102E1000ED7
:1026300008D0D4C5E9FFD5C5EAFFEF50800B01E013
:10264000010E000901E0C4D243D101C5E6FF51DB10
:1026500059D001C5E6FF5DDB55D06CDB0501516F3C
:10266000470E506F0501D451D51102E1000E08D07C
:10267000D4C5E9FFD5C5EAFFEF50800B01E0010E9C
:10268000000901E0A5D224D15BDB0501516F480EA2
:10269000506F0501D451D51102E1000E08D0D4C508
:1026A000E9FFD5C5EAFFEF50800B01E0010E0009FC
:1026B00001E08ED20DD103C5E6FF02C5E6FF01C5DC
:1026C000E6FF41DBE552E5521DD001C5E6FF99DB8F
:1026D000E5520501516F510E506F0501D451D511CE
:1026E00002E1000E08D0D4C5E9FFD5C5EAFFEF50DE
:1026F000800B01E0010E000901E06AD2E9D001C5BA
:10270000E6FF8DDBE55264D20501D66B8B50040BDE
:1027100001E0010E0B6E8C50020B01E0010E0B5C10
:1027200003E18B748C7254D28BA402D08C8250D271
:102730008C924ED20501D451D51102E1000E08D081
:10274000D4C5E9FFD5C5EAFFEF50800B01E0010ECB
:10275000000901E03DD20501810E506F83A603D030
:10276000010E516FB5D0516BB3D00501D451D511C5
:1027700002E1000E08D0D4C5E9FFD5C5EAFFEF504D
:10278000800B01E0010E000901E022D20501820E5A
:10279000506F010505E18350100B01E0010EDF6E63
:1027A000020E015D05E18350200B01E0010EDF6E9A
:1027B000030E015D05E18350400B01E0010EDF6E69
:1027C000040E015D05E18350800B01E0010EDF6E18
:1027D000DF0403E1010E516F01D0516B526B78D0D1
:1027E000020503E1010EDF6E04D0025101E0F0D1D9
:1027F000DF6A0151040A1CE0070A13E0010A0AE03B
:10280000030A01E0E5D1DF50E8B08C88E8B0E0D100
:102810008C98DED1DF50E8B08C8AE8B0D9D18C9AA0
:10282000D7D1DF50E8B08C8CE8B0D2D18C9CD0D11D
:10283000DF50E8B08C8EE8B0CBD18C9EC9D10205B8
:1028400003E1010EDF6E04D0025101E0C1D1DF6A65
:102850000151040A1CE0070A13E0010A0AE0030A16
:1028600001E0B6D1DF50E8B09588E8B0B1D19598D5
:10287000AFD1DF50E8B0958AE8B0AAD1959AA8D137
:10288000DF50E8B0958CE8B0A3D1959CA1D1DF5082
:10289000E8B0958EE8B09CD1959E9AD10501D451AF
:1028A000D51102E1000E08D0D4C5E9FFD5C5EAFF75
:1028B000EF50800B01E0010E000901E089D1050114
:1028C000850E506FCEC551F5CFC552F5D0C553F525
:1028D000400EE66E500EE66E050EE66E010EE66EDA
:1028E000E66E8CEC09F00B6E050EE15E0B50F3CF3B
:1028F000D4F5F4CFD5F56CD1010EF36E030EF3CF02
:10290000DBFF040EDB6AACA2FED7030EDBCFE9FFD0
:10291000040EDBCFEAFF000EE926050EEA22EF5097
:10292000E66E77EC19F0E552030EDB2A040E01E3A4
:10293000DB2A030EDBCFE9FF040EDBCFEAFF000E3C
:10294000E926050EEA22EF50DEE142D10501D4511D
:10295000D51102E1000E08D0D4C5E9FFD5C5EAFFC4
:10296000EF50800B01E0010E000901E031D10501BB
:10297000870E506F9EAA20D0010E516F16D105010F
:10298000D451D51102E1000E08D0D4C5E9FFD5C558
:10299000EAFFEF50800B01E0010E000901E018D1C1
:1029A0000501880E506F9EAA07D0010E516F3EECB4
:1029B00019F00501526FF9D0516BF7D001C5E6FF50
:1029C00077EC19F0E55204D10501D451D51102E19B
:1029D000000E08D0D4C5E9FFD5C5EAFFEF50800B43
:1029E00001E0010E000901E0F3D031D9050EF3CF6B
:1029F000DBFF060EF4CFDBFF0501370E506F050E2F
:102A0000DBCF51F5060E21D0050EC26E0501D45163
:102A1000D51102E1000E08D0D4C5E9FFD5C5EAFF03
:102A2000EF50800B01E0010E000901E0D1D0EDD89C
:102A3000070EF3CFDBFF080EF4CFDBFF0501380EE6
:102A4000506F070EDBCF51F5080EDBCF52F5ADD03E
:102A5000090E0AC5DBFFE66AE66ADBCFE6FF8BDC20
:102A6000E552E552E552E76E0A0EE7CFDBFF0501BE
:102A7000D451D51102E1000E08D0D4C5E9FFD5C567
:102A8000EAFFEF50800B01E0010E000901E0A0D049
:102A90000501980E506F0A0E86D00B0E0AC5DBFF9B
:102AA0000C0E0BC5DBFFDBCFE6FF010EE66E0B0E57
:102AB000DBCFE6FF60DCE552E552E552E76E0D0E36
:102AC000E7CFDBFF0501D451D51102E1000E08D09C
:102AD000D4C5E9FFD5C5EAFFEF50800B01E0010E38
:102AE000000976E10501990E506F0D0E5CD00E0EB7
:102AF0000AC5DBFF0F0E0BC5DBFFE66AE66ADBCF1C
:102B0000E6FF0E0EDBCFE6FF62DCE552E552E55252
:102B1000E552E76E100EE7CFDBFF0501D451D5116A
:102B200002E1000E08D0D4C5E9FFD5C5EAFFEF5099
:102B3000800B01E0010E00094BE105019A0E506F78
:102B4000100E31D0110E0AC5DBFF120E0BC5DBFFD4
:102B5000130E0CC5DBFFDBCFE6FF010EE66E120E97
:102B6000DBCFE6FF110EDBCFE6FFE7EC11F0E5521D
:102B7000E552E552E552E76E140EE7CFDBFF0501A3
:102B8000D451D51102E1000E08D0D4C5E9FFD5C556
:102B9000EAFFEF50800B01E0010E000919E1050189
:102BA0009B0E506F140EDBCF51F5400EE66E500EAB
:102BB000E66E050EE66E010EE66EE66E8CEC09F032
:102BC0000B6E050EE15E0B50F3CFD4F5F4CFD5F5C7
:102BD000400EE66E000EE66E050EE66EE66A010E2B
:102BE000E66E8CEC09F00B6E050EE15E0B50F3CF38
:102BF000D2F5F4CFD3F5150EE15C02E2E16AE552BD
:102C0000E16EE552E7CFD9FF1200D9CFE6FFE1CF61
:102C1000D9FF020EE126DE6ADD6AC282C2B2FED7A9
:102C2000C350DF6E010EC4CFDBFFDECF0BF0DDCF74
:102C30000CF00BC0F3FF0CC0F4FF020EE15C02E2EB
:102C4000E16AE552E16EE552E7CFD9FF1200D9CF34
:102C5000E6FFE1CFD9FF020EE126DE6ADD6AC2821D
:102C6000C2B2FED7C350DF6E010EC4CFDBFFDECF92
:102C70000BF0DDCF0CF00BC0F3FF0CC0F4FF020E25
:102C8000E15C02E2E16AE552E16EE552E7CFD9FF8D
:102C90001200938093823F0EC716C66AC56AC68625
:102CA000C78EC68A1D0EC86E9E9612001F0EC514D2
:102CB000FDE1C750040BFAE11200D9CFE6FFE1CFE6
:102CC000D9FFF4DFFE0EDB5004E1C580C5A004D0BF
:102CD000FDD7C582C5B2FED7E552E7CFD9FF1200B6
:102CE000C584C5B4FED71200C550400B01E0010EEB
:102CF0001200D9CFE6FFE1CFD9FFFE0EDB50C96E3F
:102D0000C6BE03D0C7B0FED7D1DFE552E7CFD9FFAB
:102D10001200D9CFE6FFE1CFD9FFFE0EDB50E8B0BD
:102D2000C58AE8A0C59AC588C5B8FED7E552E7CFE1
:102D3000D9FF1200BBDFC586C7A0FED7C95012005D
:102D4000C7B0010C000CD9CFE6FFE1CFD9FF020ECE
:102D5000E126FD0EDB5002E1020E0CD0FD0EDB047D
:102D600002E1010E07D0FD0EDB50020802E1DE6A2F
:102D700002D0020EDE6EDD6A0F015C935C915B9BFC
:102D8000C66A949E929A93809392FE0EDB50030A39
:102D90000CE0010A07E0030A03E0010A0DE10CD090
:102DA000C76A0CD0400EC76E01D0C76ADECF0BF0E9
:102DB000DDCF0CF0100E07D0400EC76EDECF0BF04B
:102DC000DDCF0CF0000E0B10C66EFC0EDB5002E1E6
:102DD000C79E0BD0FC0EDB0407E1800EC75C02E14E
:102DE000000E03D0010E01D0C79EC68A898A020E4A
:102DF000E15C02E2E16AE552E16EE552E7CFD9FF1C
:102E00001200D9CFE6FFE1CFD9FFFE0EDB50C96E2D
:102E1000C7A0FED7C950E552E7CFD9FF1200D9CFDE
:102E2000E6FFE1CFD9FFFE0EDB5002E1899A06D022
:102E3000FE0EDB0402E1898A01D0899AE552E7CFD0
:102E4000D9FF12000501D751D81104E1100ED76F38
:102E5000270ED86FD707000ED85B60A207D0D751D6
:102E6000D8112EE18B748BB413D027D00501A0515B
:102E700002E18B9422D0A00502E18B8409D0020EDE
:102E8000A05D02E18B8419D0040EA05D03E18B9458
:102E90008C821200100EA05D06E10501D751D811F9
:102EA0000FE18B740AD0200EA05D0AE10501D75115
:102EB000D81106E18B748BA402D08C9212008C8204
:102EC0001200120012001200120055EF18F012004A
:102ED0001E0EE66E010EE66E55EC09F0E552E55267
:102EE000400EE66E000EE66E050EE66EE66A010E18
:102EF000E66E8CEC09F00B6E050EE15E0B50F3CF25
:102F0000D2F5F4CFD3F512000501BF0520E105018C
:102F1000C0051DE1A394D6DF60920501C06B0501D9
:102F2000100EE56F0E0EE66FE507000EE65BE5514D
:102F3000E611FAE16084080EE56F070EE66FE5071B
:102F4000000EE65BE551E611FAE16094A3841200FD
:102F5000D9CFE6FFE1CFD9FFFD0EDBCF06F0FE0EA5
:102F6000DBCF07F0050E061801E1075036E0E868F0
:102F7000061802E17F0E07182FE0030E061801E184
:102F8000075028E0020E061801E1075021E0010E6B
:102F9000061801E107501AE0740E061801E1075007
:102FA00013E0750E061801E107500CE0730E0618C9
:102FB00001E1075005E0720E06180FE107500DD031
:102FC00082DF0BD07EDF09D07DDF07D081DF05D027
:102FD0007EDF03D07ADF01D077DF010EE552E7CF45
:042FE000D9FF120003
:0C2FE4001201000200000008D8043F00A9
:102FF00002000102000109022900010100C032099A
:103000000400000203000000092111010001221C3C
:10301000000705810340000107050103400001048A
:1030200003090434034D006900630072006F0063FC
:1030300000680069007000200054006500630068AB
:10304000006E006F006C006F00670079002000497F
:10305000006E0063002E002E03530069006D0070A7
:10306000006C006500200048004900440020004436
:10307000006500760069006300650020004400657B
:10308000006D006F000600FF0901A1011901294030
:1030900015012540750895408100190129409100CE
:0930A000C0F62F1F302330573019
:0630AA00040120511F0B80
:1030B000010801E01200245101E01200060E215D1A
:1030C0001BE12351230A18E0010A0CE0030A14E172
:1030D0000501A10511E10501080EB16F300EB26FB7
:1030E000090E06D00501850EB16F300EB26F1C0EB1
:1030F000B46FB56BC00EB36F04012051600BE84292
:10310000E842E842E842E842010801E012002151A9
:103110000B0A26E0080A19E0090A11E0080A05E08E
:103120000B0A23E0080A21E012000501E30EB16F4B
:10313000050EB26F010EB46FB56BC10E0FD0050155
:10314000800EB36F23C4E3F512000501E40EB16FE6
:10315000050EB26F010EB46FB56B810EB36F120026
:0C3160000501800EB36F22C4E4F51200DC
:04316C001E0EF66ECF
:10317000100EF76E000EF86E05010900F550DE6FB7
:103180000900F550DF6F03E1DE6701D03DD0090093
:10319000F550D96F0900F550DA6F0900F550DB6F73
:1031A00009000900F550E96E0900F550EA6E0900C2
:1031B00009000900F550DC6F0900F550DD6F0900CA
:1031C0000900F6CFE0F5F7CFE1F5F8CFE2F5D9C584
:1031D000F6FFDAC5F7FFDBC5F8FF0501DC5302E1B6
:1031E000DD5307E00900F550EE6EDC07F8E2DD077D
:1031F000F9D7E0C5F6FFE1C5F7FFE2C5F8FF050125
:0A320000DE07000EDF5BBFD71200EF
:06320A00D9CFE6FFDACF88
:10321000E6FFE1CFD9FFE2CFDAFFAC6AAB6AFD0E81
:10322000DBB0AC88DBA202D0AC8CAB8CDBB4AC8E58
:10323000DBA602D0AB8801D0AB8ADBB8AC84DBBAAA
:10324000AB86DBAC02D09D8A01D09D9ADBAE02D06A
:103250009D8801D09D98FB0EDB50AF6EFC0EDBCF3E
:103260000CF00CC00BF00C6A0B50B06EAC8AAB8E3D
:0C327000E552E5CFDAFFE7CFD9FF1200EE
:04327C00D9CFE6FFC1
:10328000DACFE6FFE1CFD9FFE2CFDAFFE652F20E66
:103290000501E717ABAC03D0E791ABB0E781ABB466
:1032A000E785ABB2E787AE50DF6EDF50E552E552FF
:0A32B000E5CFDAFFE7CFD9FF1200E7
:0632BA00FE0EE3CFE9FF68
:1032C000FF0EE3CFEAFFE9CFF3FFEACFF4FFFB0EF7
:1032D000E35003E1FC0EE35009E0FB0EE30602E2DB
:0E32E000FC0EE306FD0EE350EE6EF1D7120079
:0232EE00D9CF36
:1032F000E6FFDACFE6FFE1CFD9FFE2CFDAFFACACF1
:1033000004D0AC900501E7B3AC80FD0EDB50AD6E90
:0C331000E552E5CFDAFFE7CFD9FF12004D
:04331C00000EF36E3E
:1033200000EE00F0080E01D81200EA6002D0EE6A4A
:0C333000FCD7F350E9601200EE6AFCD7F5
:04333C0013EE00F09C
:1033400023EE00F0F86A0A9CB6EC18F003EC08F0E3
:0833500044EC12F0FBD712005F
:083358003035300000000000D8
:0333600001000069
:020000040030CA
:0100000021DE
:0100010008F6
:010002001FDE
:010003003EBE
:010005009169
:010006008178
:00000001FF
